:100000000C9462000C948A000C948A000C948A0070
:100010000C948A000C948A000C948A000C948A0038
:100020000C948A000C948A000C948A000C948A0028
:100030000C948A000C94DD070C948A000C948A00BE
:100040000C9493070C948A000C9461070C943B0762
:100050000C948A000C948A000C948A000C948A00F8
:100060000C948A000C948A000000000024002700F1
:100070002A0000000000250028002B0000000000DE
:1000800023002600290004040404040404040202DA
:100090000202020203030303030301020408102007
:1000A0004080010204081020010204081020000012
:1000B0000008000201000003040700000000000027
:1000C0000000040811241FBECFEFD8E0DEBFCDBF73
:1000D00015E0A0E0B1E0ECEDFBE102C005900D926F
:1000E000A83DB107D9F726E0A8EDB5E001C01D9203
:1000F000A23AB207E1F710E0C2E6D0E004C02197CF
:10010000FE010E94BC0DC136D107C9F70E94350817
:100110000C94EC0D0C940000AF92BF92CF92DF9242
:10012000EF92FF920F931F93CF93DF936C017B01AC
:100130008B01040F151FEB015E01AE18BF08C0173D
:10014000D10759F06991D601ED91FC910190F081B0
:10015000E02DC6010995892B79F7C501DF91CF9173
:100160001F910F91FF90EF90DF90CF90BF90AF90D5
:100170000895FC01538D448D252F30E0842F90E0AD
:10018000821B930B541710F0CF9608950197089592
:10019000FC01918D828D981761F0A28DAE0FBF2F5B
:1001A000B11D5D968C91928D9F5F9F73928F90E0B1
:1001B00008958FEF9FEF0895FC01918D828D981720
:1001C00031F0828DE80FF11D858D90E008958FEF5D
:1001D0009FEF0895FC01918D228D892F90E0805C26
:1001E0009F4F821B91098F739927089583E096E0B2
:1001F0000E94EA0021E0892B09F420E0822F089573
:1002000080E090E0892B29F00E94F60081110C9487
:1002100000000895FC01A48DA80FB92FB11DA35AA9
:10022000BF4F2C91848D90E001968F739927848F16
:10023000A689B7892C93A089B1898C918370806439
:100240008C93938D848D981306C00288F389E02DDA
:1002500080818F7D80830895EF92FF920F931F938B
:10026000CF93DF93EC0181E0888F9B8D8C8D981369
:100270001AC0E889F989808185FF15C09FB7F89475
:10028000EE89FF896083E889F989808183708064C1
:1002900080839FBF81E090E0DF91CF911F910F910C
:1002A000FF90EF900895F62E0B8D10E00F5F1F4F1B
:1002B0000F731127E02E8C8D8E110CC00FB607FC2A
:1002C000FACFE889F989808185FFF5CFCE010E94B8
:1002D0000A01F1CFEB8DEC0FFD2FF11DE35AFF4F1B
:1002E000F0829FB7F8940B8FEA89FB898081806246
:1002F000CFCFCF93DF93EC01888D8823B9F0AA8903
:10030000BB89E889F9898C9185FD03C0808186FDD0
:100310000DC00FB607FCF7CF8C9185FFF2CF80811F
:1003200085FFEDCFCE010E940A01E9CFDF91CF9189
:100330000895833081F028F4813099F08230A9F05B
:1003400008958730A9F08830C9F08430B1F48091E5
:1003500080008F7D03C0809180008F778093800024
:10036000089584B58F7784BD089584B58F7DFBCFC4
:100370008091B0008F778093B00008958091B00095
:100380008F7DF9CFCF93DF93282F30E0F901E2552D
:10039000FF4F8491F901E656FF4FD491F901EA57D6
:1003A000FF4FC491CC23A1F081110E949901EC2F41
:1003B000F0E0EE0FFF1FE458FF4FA591B491EC91D0
:1003C000ED2381E090E009F480E0DF91CF91089582
:1003D00080E090E0FACF1F93CF93DF93282F30E097
:1003E000F901E255FF4F8491F901E656FF4FD49190
:1003F000F901EA57FF4FC491CC23A9F0162F8111C0
:100400000E949901EC2FF0E0EE0FFF1FEE58FF4F16
:10041000A591B4918FB7F894EC91111108C0D095C3
:10042000DE23DC938FBFDF91CF911F910895DE2BE8
:10043000F8CFCF93DF9390E0FC01E656FF4F249175
:100440008A579F4FFC0184918823C9F090E0880F60
:10045000991FFC01E859FF4FA591B491FC01EE589A
:10046000FF4FC591D49161110DC09FB7F8948C9145
:10047000209582238C938881282328839FBFDF9136
:10048000CF910895623051F49FB7F8943C91822F38
:10049000809583238C93E8812E2BEFCF8FB7F89430
:1004A000EC912E2B2C938FBFEACF8230910538F040
:1004B000880F991F880F991F05970197F1F70895E5
:1004C0003FB7F8948091E8059091E905A091EA057D
:1004D000B091EB0526B5A89B05C02F3F19F00196FA
:1004E000A11DB11D3FBFBA2FA92F982F8827BC018E
:1004F000CD01620F711D811D911D42E0660F771FB6
:10050000881F991F4A95D1F708958F929F92AF92B5
:10051000BF92CF92DF92EF92FF926B017C010E941B
:1005200060024B015C01C114D104E104F104B9F093
:100530000E946002681979098A099B09683E734024
:100540008105910580F321E0C21AD108E108F10884
:1005500088EE880E83E0981EA11CB11CE4CFFF90AA
:10056000EF90DF90CF90BF90AF909F908F900895C5
:1005700060E083E00E94EB0160E089E00E94EB0113
:1005800060E082E00E94EB0160E088E00C94EB0107
:100590000F931F93CF93DF938C01D0E0C0E061E015
:1005A0008DE00E94EB0161E08CE00E94EB0161E0D4
:1005B0008BE00E94EB0161E08FE00E94EB0161E0C3
:1005C00080E10E94EB0162E370E080E090E00E9435
:1005D000850260E08DE00E94EB0160E08CE00E940B
:1005E000EB0160E08BE00E94EB0160E08EE00E9496
:1005F000EB0160E08FE00E94EB0160E080E10E948F
:10060000EB0162E370E080E090E00E9485022196B9
:100610000C171D0721F6DF91CF911F910F910895BF
:10062000FC0101900020E9F73197AF01481B590BFD
:10063000BC0183E096E00C948C0085E291E00C9480
:1006400010038F929F92AF92BF920F931F93CF93FD
:10065000DF93CDB7DEB7A1970FB6F894DEBF0FBE1C
:10066000CDBF19A2423008F44AE08E010F5D1F4F42
:10067000842E912CB12CA12CA50194010E949A0DDD
:10068000E62FB901CA01EA30F4F4E05DD801EE9337
:100690008D01232B242B252B79F790E080E01097F8
:1006A00019F0CD010E941003A1960FB6F894DEBF99
:1006B0000FBECDBFDF91CF911F910F91BF90AF9033
:1006C0009F908F900895E95CE1CFCF93DF930E94D4
:1006D0001003EC010E941D038C0F9D1FDF91CF9131
:1006E0000895CF93DF9368EE73E080E090E00E947E
:1006F000850284E00E94C201EC0181E0209709F0AC
:1007000080E08093E00585E00E94C20121E000972F
:1007100009F020E02093DF05CD2B21F1892BF1F0AA
:1007200068EE73E080E090E00E94850285E00E9420
:10073000C20185E00E94C20121E0009709F020E09B
:100740002093DF05892B51F082E090E090930E0119
:1007500080930D0188E291E00E9465038091E0059D
:10076000882371F08091DF05882351F082E090E0CA
:1007700090930E0180930D0188E591E00E9465033E
:1007800080910D0190910E01009729F0019771F071
:10079000DF91CF9108958091DF058823C9F381E02F
:1007A00090E090930E0180930D01F2CF8091E005CF
:1007B000882371F310920E0110920D01E9CF0C9471
:1007C0001003CF92DF92EF92FF92CF93DF936C01F1
:1007D000990FEE08FF08F7FE19C06DE283E096E07E
:1007E0000E942C01EC0166277727CB016C197D094B
:1007F0008E099F094AE00E9421038C0F9D1FDF9103
:10080000CF91FF90EF90DF90CF9008954AE0C7011D
:10081000B601DF91CF91FF90EF90DF90CF900C94D5
:100820002103CF93DF930E94E103EC010E941D039B
:100830008C0F9D1FDF91CF9108953F924F925F9251
:100840006F927F928F929F92AF92BF92CF92DF92E0
:10085000EF92FF920F931F93CF93DF932B013C01F5
:100860008A0181E090E0141415041604170414F0B2
:100870008FEF9FEF1092ED051092EC056C0183E075
:10088000CC0CDD1C8A95E1F70D2C000CEE08FF085E
:1008900033243394C0E9D1E098E0892E912C8091E3
:1008A000EC059091ED05411451046104710409F4C3
:1008B000E8C001969093ED058093EC058091E105E9
:1008C0009091E2051414150416041704B4F501966A
:1008D0009093E2058093E1058091E1059091E20516
:1008E000813D27E0920734F0805D97409093E205C8
:1008F0008093E1058091E1059091E20597FF06C0A4
:100900008053984F9093E2058093E1058091E10533
:100910009091E205B4010E94860D8830910590F512
:10092000FC01EB56FB4F0C94BC0DA404B2040A0569
:1009300010051A051C0522052C05411451046104FB
:10094000710451F20197C4CF61E083E00E94EB0192
:1009500061E089E00E94EB0161E082E00E94EB012E
:1009600061E00DC061E083E00E94EB0160E089E09E
:100970000E94EB0161E082E00E94EB0160E088E010
:100980000E94EB011C161D0624F42197CE010E9443
:100990005502C8010E9455021414150416041704C8
:1009A0000CF05CC081E0481A51086108710884E0CD
:1009B0000E94C2015C0181E0A114B10409F080E051
:1009C0008093E00585E00E94C20121E0009709F0D4
:1009D00020E02093DF0520910D0130910E012130A0
:1009E000310509F047C0892B09F059CF8091E10505
:1009F0009091E205B4010E94860D892B09F04FCF3A
:100A0000412C512C3201332009F449CF2601370102
:100A1000312C45CF61E083E00E94EB0161E0A7CF7C
:100A200060E083E00E94EB0161E089E00E94EB015D
:100A300060E0A1CF61E0F5CF61E083E00E94EB01CF
:100A400060E0F3CF61E083E00E94EB0161E089E0C8
:100A50000E94EB0160E081CF60E0F5CF41145104CA
:100A60006104710409F4A3CF2FEF421A520A620AFB
:100A7000720A9DCF232B09F012CFAB2809F00FCFBC
:100A8000B5CF65E070E00E94860D7093ED05609330
:100A9000EC050E941D038AE791E00E94DF0380912C
:100AA000EC059091ED05DF91CF911F910F91FF9093
:100AB000EF90DF90CF90BF90AF909F908F907F90FE
:100AC0006F905F904F903F900C94110460E0809184
:100AD00001010E94EB0181E08093050120910D014D
:100AE00030910E0121303105D1F410920E01109297
:100AF0000D018093060189ED93E00E94650340910A
:100B000007015091080164EB7BEF8FEF9FEF0E948C
:100B10001D040E94B80287E891E00C94650381E00F
:100B200090E090930E0180930D01109206018AE9E6
:100B300091E00E94650340910701509108016CE427
:100B400074E080E090E00E941D040E94B8028AEAEE
:100B500091E0E3CFCF93DF938091DB059091DC05AB
:100B6000A091DD05B091DE050196A11DB11D809318
:100B7000DB059093DC05A093DD05B093DE05409185
:100B8000EE055091EF056091F0057091F1054F5F12
:100B90005F4F6F4F7F4F4093EE055093EF0560938B
:100BA000F0057093F1054091FF05509100066091AA
:100BB000010670910206411551056105710561F04C
:100BC00041505109610971094093FF055093000696
:100BD000609301067093020685369105A105B10563
:100BE00008F472C0C091A106C093A00686E00E94DE
:100BF000C20121E0892B09F020E02093A106809119
:100C00000F01909110010497B9F0C217A9F08DEB74
:100C100091E00E94DF032091A10680910D01909147
:100C20000E01222309F48AC0019731F487E090E095
:100C30009093100180930F018AE00E94C20121E08D
:100C4000009709F020E02093FA05892B51F4809158
:100C5000FD059091FE058C599F4F9093FE05809362
:100C6000FD0580910501882339F1109205018091DD
:100C70000601882309F468C060E087E00E94190239
:100C8000C0910F01D0911001C330D10509F065C0AA
:100C90006091F9058EE00E94EB016091F7058FE00D
:100CA0000E94EB016091F80580E10E94EB0161E098
:100CB000809103010E94EB011092DB051092DC058C
:100CC0001092DD051092DE058091EE059091EF0502
:100CD000A091F005B091F105893E9340A105B105C1
:100CE00050F180910F01909110018230910509F02F
:100CF0006AC0C09100016C2F809103010E94EB013A
:100D00006C2F809101010E94EB0181E0C827C09304
:100D10000001C091DA056C2F8DE00E94EB0181E0AB
:100D2000C827C093DA051092EE051092EF051092D5
:100D3000F0051092F105DF91CF910895892B09F00C
:100D40007BCF88E090E074CF61E087E00E941902D9
:100D500060E087E00E94EB0193CF80910D019091BC
:100D60000E018130910569F08230910519F1892BCE
:100D700099F41092D90581E08093D8058BE090E03A
:100D800007C081E08093D9051092D8058CE090E0EF
:100D900090930201809301016091D9058CE00E943B
:100DA000EB016091D8058BE00E94EB01219709F4DB
:100DB00083CF6ECF1092D9051092D8051092020100
:100DC00010920101E9CF039709F0A3CF8AEE91E0D9
:100DD0000E94DF0380910D0190910E010E94E103BA
:100DE00089EF91E00E94DF0380910101909102015F
:100DF0000E94E10383E092E00E94DF0390E080E044
:100E00000E94E1038BE092E00E94DF036091FF0506
:100E10007091000680910106909102064AE00E94BE
:100E200021030E941D0365CFCF93DF93BC0190E0A7
:100E300080E04AE00E942103EC010E941D038C0F18
:100E40009D1FDF91CF9108950C94780DCF9364E6A8
:100E500070E00E94860DC62F81E090E00E9424077A
:100E60008CE192E00E94DF0324E6C29FC0011124BE
:100E7000CF910C9411041F920F920FB60F92112470
:100E80002F933F934F935F936F937F938F939F9392
:100E9000AF93BF93EF93FF9383E096E00E940A0124
:100EA000FF91EF91BF91AF919F918F917F916F9142
:100EB0005F914F913F912F910F900FBE0F901F9018
:100EC00018951F920F920FB60F9211242F938F93A4
:100ED0009F93EF93FF93E0911306F09114068081A6
:100EE000E0911906F0911A0682FD1BC09081809155
:100EF0001C068F5F8F7320911D06821741F0E091D1
:100F00001C06F0E0ED5FF94F958F80931C06FF9172
:100F1000EF919F918F912F910F900FBE0F901F9087
:100F200018958081F4CF1F920F920FB60F92112463
:100F30002F933F938F939F93AF93BF938091E4053B
:100F40009091E505A091E605B091E7053091E305A4
:100F500023E0230F2D3758F50196A11DB11D2093D5
:100F6000E3058093E4059093E505A093E605B0932F
:100F7000E7058091E8059091E905A091EA05B09117
:100F8000EB050196A11DB11D8093E8059093E9053D
:100F9000A093EA05B093EB05BF91AF919F918F911C
:100FA0003F912F910F900FBE0F901F90189526E83C
:100FB000230F0296A11DB11DD2CF1F920F920FB623
:100FC0000F9211242F933F934F935F936F937F93CF
:100FD0008F939F93AF93BF93EF93FF93E091F205AD
:100FE000F091F3050995FF91EF91BF91AF919F911A
:100FF0008F917F916F915F914F913F912F910F90C2
:101000000FBE0F901F901895E3E0F6E01382128256
:1010100088EE93E0A0E0B0E084839583A683B78355
:1010200087E191E09183808385EC90E095878487C8
:1010300084EC90E09787868780EC90E0918B808BA2
:1010400081EC90E0938B828B82EC90E0958B848B8B
:1010500086EC90E0978B868B118E128E138E148EF9
:101060008091A1068093A0060895CF93DF9300D0CE
:101070001F92CDB7DEB7789484B5826084BD84B505
:10108000816084BD85B5826085BD85B5816085BD83
:1010900080916E00816080936E001092810080913B
:1010A00081008260809381008091810081608093C3
:1010B0008100809180008160809380008091B100E8
:1010C00084608093B1008091B00081608093B00013
:1010D00080917A00846080937A0080917A008260A7
:1010E00080937A0080917A00816080937A00809169
:1010F0007A00806880937A001092C100E091130614
:10110000F091140682E08083E0910F06F0911006C2
:101110001082E0911106F09112068FEC80831092FC
:101120001B06E0911706F091180686E08083E09197
:101130001506F0911606808180618083E091150686
:10114000F0911606808188608083E0911506F09109
:101150001606808180688083E0911506F09116065E
:1011600080818F7D808386E392E00E94DF0382E0AE
:1011700090E00E94E10381E795E00E94DF0383E0B5
:1011800090E00E94110490E080E00E94700D8F3F7B
:1011900011F0883261F428E230E030930A012093A4
:1011A00009012EE030E030930401209303018A30DE
:1011B00009F059C18AE090E090930A0180930901F7
:1011C00080E190E0909304018093030181E090E03E
:1011D0000E94700D8F3F09F452C124E6829FC00126
:1011E0001124909308018093070183E090E00E940E
:1011F000700D898384E090E00E94700D90E0982F3C
:1012000088273981830F911D8C3D2FEF920708F0BD
:101210003BC19093FC058093FB0561E08DE00E944B
:10122000190261E08CE00E94190261E08BE00E94EB
:10123000190261E08EE00E94190261E08FE00E94D5
:10124000190261E080E10E94190262E08AE00E94D6
:10125000190260E087E00E94190262E086E00E94C5
:10126000190261E083E00E94190261E089E00E94B6
:10127000190261E082E00E94190261E088E00E94A8
:10128000190262E084E00E94190262E085E00E9497
:10129000190280E1809381001092800081E08093A8
:1012A000F60520E43FE13093F5052093F4053093F3
:1012B00087002093860091E1909381002AEA35E02F
:1012C0003093F3052093F20580936F0084E090E063
:1012D0000E94C8021092EE051092EF051092F005E0
:1012E0001092F105109205018EE592E00E946503CF
:1012F0008AE00E94C20121E0009709F020E02093DB
:10130000FA05892B09F032C188E692E00E94650354
:1013100089E892E00E9465030E94710380910D01AB
:1013200090910E01019709F0B2C08AE992E00E9403
:1013300065038EE096E090930801809307010E9478
:10134000660580910D0190910E01892B09F0A2C0D4
:101350008AEB92E00E94DF038091EC059091ED050D
:101360000E9411048091EC059091ED059B838A8386
:101370007C019FEFE91AF90A68EE73E080E090E0E3
:101380000E9485020E9466058BEC92E00E94DF03BA
:101390008091EC059091ED050E9411040091EC05FF
:1013A0001091ED0568012FEFC21AD20A68EE73E0C2
:1013B00080E090E00E9485028CED92E00E9465033F
:1013C0008091070190910801843691050CF4A2C028
:1013D000C016D1060CF4A6C02A813B81E216F306A2
:1013E0000CF4A0C0C297909308018093070188EE87
:1013F00091E00E94650380EF92E00E94DF038091FC
:101400000701909108010E9411048DEF92E00E9463
:10141000DF03C6010E94E10386E093E00E94DF0340
:10142000C7010E9411040E9466050E947103809109
:101430000D0190910E01019709F05BC083E193E0EB
:101440000E94DF038091EC059091ED050E9411044C
:101450000091EC051091ED0568EE73E080E090E0FE
:101460000E948502ADCF843109F0B0CE84E190E0D6
:1014700090930A01809309018FE090E0A3CE82E46B
:1014800092E00E946503B1CE81E090E0C2CE8AEA8C
:1014900092E04DCF8BEC92E00E94DF038091EC054F
:1014A0009091ED050E9411040091EC051091ED055D
:1014B00068013FEFC31AD30A68EE73E080E090E062
:1014C0000E9485020E9466058AEB92E00E94DF037B
:1014D0008091EC059091ED050E9411048091EC053E
:1014E0009091ED059B838A837C019FEFE91AF90AAD
:1014F0005DCF88E293E00E94DF038091EC0590913C
:10150000ED050E9411048091EC059091ED059B83FF
:101510008A83A2CFC016D10629F42A813B81E21624
:10152000F30601F10E941D038DE393E00E94650321
:1015300080910701909108018C599F4F9093080169
:101540008093070186E593E00E94DF038091070105
:10155000909108010E941104809107019091080167
:101560000E9426071092FE051092FD050E9471034D
:1015700080910D0190910E01029799F48AE693E013
:101580000E94650310920E0110920D010E946605E3
:101590001092100110920F0181E080930601809358
:1015A000050186E00E94C20121E0009709F020E0D9
:1015B0002093A10620910D0130910E01892B69F035
:1015C0008BE793E02115310569F02130310591F465
:1015D00089EE93E00E9465030DC02130310551F47E
:1015E00087EB93E00E94650382E090E09093100106
:1015F00080930F0181E0809305018AE194E00E94CD
:10160000DF038091090190910A010E94110482E296
:1016100094E00E94DF0380910701909108010E94ED
:10162000110485E394E00E94DF038091FB05909113
:10163000FC050E94140784E6282E312C01E010E0FE
:1016400090E1892E97E2992EA12CB12C28EB422E05
:101650002BE0522E612C712C34E6C32ED12CE12CC0
:10166000F12C6091110170911201072E000C880B72
:10167000990B0E948502E0910F01F0911001E93071
:10168000F10508F028C2E95BF44F0C94BC0D3B0D4A
:10169000770C700B610C5C0CDF0BDA0B500B650BDD
:1016A00086E494E00E94650382E090E0909310014C
:1016B00080930F0180E090E0892B99F20E94F60060
:1016C000882379F20E940000CCCF84E594E00E9448
:1016D000650322E030E03093100120930F01EACF40
:1016E00085EA95E00E94650380910D0190910E01BD
:1016F00090930C0180930B01892B09F04AC0A091B3
:101700000901B0910A0120E63AEE0E94C20D6093F1
:10171000FF057093000680930106909302060E94D5
:1017200066050E94710380910D0190910E01029750
:10173000C9F585E090E09093100180930F0110921D
:10174000FE051092FD058091FB059091FC05019628
:101750008C3D3FEF930748F59093FC058093FB0584
:101760006091FB058091FC05898383E090E00E94F5
:101770002407698184E090E00E94240782E694E0D7
:101780000E94DF038091FB059091FC050E941407E5
:1017900091CFC092FF05D0920006E0920106F09230
:1017A0000206BDCF83E090E0C6CF1093FC05009306
:1017B000FB05D6CF8FE097E20E94C8027BCF82E77D
:1017C00094E00E94DF0380910701909108010E943C
:1017D000110483E090E00E94C8028091070190917B
:1017E00008018C599F4F90930801809307018DE861
:1017F00094E00E94DF0380910701909108010E940C
:10180000110485E394E00E94DF038091FB05909131
:10181000FC050E94140780910B0190910C0190939C
:101820000E0180930D01892B79F5A0910901B091EA
:101830000A0120E63AEE0E94C20D6093FF05709304
:10184000000680930106909302060E9466050E949E
:10185000710380910D0190910E010297F1F486E0E1
:1018600090E09093100180930F018BEA94E00E9426
:10187000DF0380910701909108010E9411041092EA
:10188000FE051092FD0516CFC092FF05D09200060E
:10189000E0920106F0920206D8CF83E090E09093A8
:1018A000100180930F0180910701909108010E941F
:1018B00026078EEC94E0DBCF1092100110920F01FE
:1018C000F9CE8091FF0590910006A0910106B0919C
:1018D0000206892B8A2B8B2B91F610921001109205
:1018E0000F0181E08093060180930501C8CF24EFAA
:1018F00031E030931201209311018091FA05882381
:1019000009F470C08091FD059091FE05893C910518
:101910000CF468C08FEE94E00E94650360E0809153
:1019200003010E94EB018091090190910A01843129
:10193000910509F475C08832910509F485C00A97AC
:1019400009F096C088E290E090930A018093090123
:1019500081E08093F9051092F8052EE030E0309395
:1019600004012093030185E095E00E94650361E096
:10197000809103010E94EB018091090190910A017D
:101980000A9729F46AE090E080E00E9424078091A1
:10199000090190910A01449729F464E190E080E004
:1019A0000E9424078091090190910A01889729F4E7
:1019B00068E290E080E00E94780D81E0809305016C
:1019C0001092FE051092FD051092FA054092FF0557
:1019D0005092000660920106709202063092120147
:1019E000209211018091FF0590910006A0910106BF
:1019F000B0910206892B8A2B8B2B09F05BCE83E7F3
:101A000095E00E9465031092100110920F01109250
:101A1000FE051092FD0530921201209211014ACE6E
:101A20008AE090E090930A018093090181E080931D
:101A3000F8051092F70520E130E03093040120937F
:101A4000030187E195E091CF84E190E090930A0152
:101A50008093090181E08093F7051092F9052FE04A
:101A600030E030930401209303018AE295E07DCFBA
:101A70008EE395E07ACF8091FD059091FE0520914F
:101A8000FA052223C9F0893E93400CF413CE8AE86C
:101A900095E00E9465031093100100930F011092CE
:101AA000FE051092FD058092FF0590920006A0921F
:101AB0000106B0920206FECD893C91050CF4FACDE8
:101AC0008DE995E00E94650382E090E0909310011B
:101AD00080930F01D4CE82EB95E00E946503EACD9E
:101AE000F999FECF92BD81BDF89A992780B50895E6
:101AF000262FF999FECF1FBA92BD81BD20BD0FB62A
:101B0000F894FA9AF99A0FBE0196089597FB072E5A
:101B100016F4009407D077FD09D00E94C90D07FC88
:101B200005D03EF4909581959F4F089570956195ED
:101B30007F4F0895A1E21A2EAA1BBB1BFD010DC009
:101B4000AA1FBB1FEE1FFF1FA217B307E407F5076D
:101B500020F0A21BB30BE40BF50B661F771F881F49
:101B6000991F1A9469F760957095809590959B01DF
:101B7000AC01BD01CF010895EE0FFF1F0590F49158
:101B8000E02D09940E94DD0DB7FF0895821B930B91
:101B90000895AA1BBB1B51E107C0AA1FBB1FA617B4
:101BA000B70710F0A61BB70B881F991F5A95A9F706
:101BB00080959095BC01CD010895A29FB001B39F7F
:101BC000C001A39F700D811D1124911DB29F700D46
:0C1BD000811D1124911D0895F894FFCF91
:101BDC00010C000E000101E80328000100010004C3
:101BEC00006400000000002C018C00B9007901EAAF
:101BFC0000C800DC000D0A00636865636B47617305
:101C0C0053776974636865733A204E4F5020626F46
:101C1C007468206F70656E2028646F75626C652027
:101C2C00636865636B656400636865636B476173C8
:101C3C0053776974636865733A204E4F5020626F16
:101C4C00746820636C6F7365640053544550535F24
:101C5C00444F4E453D200053776974636820746F80
:101C6C00204E322E20446F6E650053776974636882
:101C7C0020746F2048652E2E2E005377697463688C
:101C8C0020746F2048652E20446F6E65007570645B
:101C9C00617465576F726C643A205F76616C76651F
:101CAC005F696E7075745F737461746520636861CD
:101CBC006E6765642E2E2E20200063757272656E21
:101CCC00744761732048653A0020476173204C4586
:101CDC00443A002073746174653A002057414954AA
:101CEC0020666F72205265616479200053746F72A4
:101CFC0065206D6F746F7220737465702064656CF1
:101D0C006179203D2000426F6F74696E67204657E1
:101D1C0020004E6F206D6F746F722073746570208D
:101D2C0064656C61792073746F726564200053452F
:101D3C005455503A2E2E2E0053455455503A2042AD
:101D4C007574746F6E50726573736564203E2043B6
:101D5C00616C69627261746500425554544F4E5304
:101D6C005441525455502E2E2E0043757272656E8E
:101D7C0074204761733A2048650043757272656E32
:101D8C0074204761733A204E3200466F756E6420A2
:101D9C004E325374657073203D2000466F756E642F
:101DAC002048655374657073203D200043616C6955
:101DBC006272617465204D6F746F722E2E2E20002E
:101DCC00537465702044656C61793A20005F6D61D5
:101DDC007848653D200020202C205F6D61784E32C4
:101DEC003D2000537465707320746F204865207318
:101DFC0077697463683A2000537465707320746F4C
:101E0C00204E32207377697463683A200043616C0A
:101E1C00696272617465204D6F746F7220526573C4
:101E2C00756C743A2000426573742053746570208D
:101E3C0044656C6179206973200053455455503AC0
:101E4C0020666F756E64204E4F50005345545550AC
:101E5C003A20666F756E642056616C7665204F462D
:101E6C004620616E64204E32207365743A2053779D
:101E7C0069746368206261636B20746F2048656CC1
:101E8C0069756D2E2E2E0053455455503A20666FB1
:101E9C00756E642056616C7665204F4E20616E64C1
:101EAC00204865207365743A205377697463682001
:101EBC00746F204E322E2E2E0053455455503A201E
:101ECC00666F756E642056616C7665204F464620B1
:101EDC00616E642048653A204F4B2E204E6F205384
:101EEC007769746368696E672E0054696D65723A20
:101EFC0020004D6F746F7220737465702064656C74
:101F0C0061793A2000546F74616C20537769746363
:101F1C006865733A2000474357414E54535F4E3225
:101F2C002E2E2E00474357414E54535F48452E2EBC
:101F3C002E00537769746368657320646F6E653A1D
:101F4C0020004552524F524741535357495443482E
:101F5C003A205370656564207761732000455252B6
:101F6C004F524741535357495443483A2053657491
:101F7C0020537065656420746F20004552524F5297
:101F8C004741535357495443483A205374696C6C36
:101F9C00206572726F72207573696E6720004552EE
:101FAC00524F524741535357495443483A204E6578
:101FBC0077207370656564207361766564200053C7
:101FCC00455454494D45202F2073776974636854E8
:101FDC00696D6572005365742054696D6572207467
:101FEC006F204C4F4E47005365742054696D6572D9
:101FFC0020746F2053484F52540053657420546919
:10200C006D657220746F204D454449554D00455205
:10201C00524F523A206261642063757272656E741D
:10202C0054696D657220666F756E6420696E2075DB
:10203C00706461746554696D65724C656428292EF1
:10204C002E2E004C656176652053455454494D4500
:10205C002053544154452E2E2E00535441544520A8
:10206C003D2053455454494D452E2E2E005354417A
:10207C005445203D205357495443484741532E2E35
:10208C002E004552524F523A2044656661756C746D
:10209C0020666F756E6420696E206D61696E206CB0
:0820AC006F6F702E2E2E000054
:00000001FF
